{
  "_format": "hh-sol-artifact-1",
  "contractName": "Donate",
  "sourceName": "contracts/Donate.sol",
  "abi": [
    {
      "inputs": [],
      "stateMutability": "nonpayable",
      "type": "constructor"
    },
    {
      "anonymous": false,
      "inputs": [
        {
          "indexed": true,
          "internalType": "address",
          "name": "from",
          "type": "address"
        },
        {
          "indexed": false,
          "internalType": "uint256",
          "name": "time",
          "type": "uint256"
        },
        {
          "indexed": false,
          "internalType": "string",
          "name": "name",
          "type": "string"
        },
        {
          "indexed": false,
          "internalType": "string",
          "name": "message",
          "type": "string"
        }
      ],
      "name": "NewDonation",
      "type": "event"
    },
    {
      "inputs": [],
      "name": "getDonatios",
      "outputs": [
        {
          "components": [
            {
              "internalType": "address",
              "name": "from",
              "type": "address"
            },
            {
              "internalType": "uint256",
              "name": "time",
              "type": "uint256"
            },
            {
              "internalType": "string",
              "name": "name",
              "type": "string"
            },
            {
              "internalType": "string",
              "name": "message",
              "type": "string"
            }
          ],
          "internalType": "struct Donate.Donation[]",
          "name": "",
          "type": "tuple[]"
        }
      ],
      "stateMutability": "view",
      "type": "function"
    },
    {
      "inputs": [
        {
          "internalType": "string",
          "name": "_name",
          "type": "string"
        },
        {
          "internalType": "string",
          "name": "_message",
          "type": "string"
        }
      ],
      "name": "sendMoney",
      "outputs": [],
      "stateMutability": "payable",
      "type": "function"
    }
  ],
  "bytecode": "0x608060405234801561001057600080fd5b5033600160006101000a81548173ffffffffffffffffffffffffffffffffffffffff021916908373ffffffffffffffffffffffffffffffffffffffff160217905550610be9806100616000396000f3fe6080604052600436106100295760003560e01c806361c56ed61461002e5780636a7243b214610059575b600080fd5b34801561003a57600080fd5b50610043610075565b60405161005091906105e8565b60405180910390f35b610073600480360381019061006e9190610753565b610258565b005b60606000805480602002602001604051908101604052809291908181526020016000905b8282101561024f57838290600052602060002090600402016040518060800160405290816000820160009054906101000a900473ffffffffffffffffffffffffffffffffffffffff1673ffffffffffffffffffffffffffffffffffffffff1673ffffffffffffffffffffffffffffffffffffffff1681526020016001820154815260200160028201805461012c906107fa565b80601f0160208091040260200160405190810160405280929190818152602001828054610158906107fa565b80156101a55780601f1061017a576101008083540402835291602001916101a5565b820191906000526020600020905b81548152906001019060200180831161018857829003601f168201915b505050505081526020016003820180546101be906107fa565b80601f01602080910402602001604051908101604052809291908181526020018280546101ea906107fa565b80156102375780601f1061020c57610100808354040283529160200191610237565b820191906000526020600020905b81548152906001019060200180831161021a57829003601f168201915b50505050508152505081526020019060010190610099565b50505050905090565b6000341161029b576040517f08c379a000000000000000000000000000000000000000000000000000000000815260040161029290610888565b60405180910390fd5b600060405180608001604052803373ffffffffffffffffffffffffffffffffffffffff16815260200142815260200184815260200183815250908060018154018082558091505060019003906000526020600020906004020160009091909190915060008201518160000160006101000a81548173ffffffffffffffffffffffffffffffffffffffff021916908373ffffffffffffffffffffffffffffffffffffffff1602179055506020820151816001015560408201518160020190816103639190610a54565b5060608201518160030190816103799190610a54565b5050503373ffffffffffffffffffffffffffffffffffffffff167f0d1895f91cc9d26b05d60f8931351ea633b568fc75f65deaba87b1b87d85a58f4284846040516103c693929190610b6e565b60405180910390a25050565b600081519050919050565b600082825260208201905092915050565b6000819050602082019050919050565b600073ffffffffffffffffffffffffffffffffffffffff82169050919050565b6000610429826103fe565b9050919050565b6104398161041e565b82525050565b6000819050919050565b6104528161043f565b82525050565b600081519050919050565b600082825260208201905092915050565b60005b83811015610492578082015181840152602081019050610477565b60008484015250505050565b6000601f19601f8301169050919050565b60006104ba82610458565b6104c48185610463565b93506104d4818560208601610474565b6104dd8161049e565b840191505092915050565b60006080830160008301516105006000860182610430565b5060208301516105136020860182610449565b506040830151848203604086015261052b82826104af565b9150506060830151848203606086015261054582826104af565b9150508091505092915050565b600061055e83836104e8565b905092915050565b6000602082019050919050565b600061057e826103d2565b61058881856103dd565b93508360208202850161059a856103ee565b8060005b858110156105d657848403895281516105b78582610552565b94506105c283610566565b925060208a0199505060018101905061059e565b50829750879550505050505092915050565b600060208201905081810360008301526106028184610573565b905092915050565b6000604051905090565b600080fd5b600080fd5b600080fd5b600080fd5b7f4e487b7100000000000000000000000000000000000000000000000000000000600052604160045260246000fd5b6106608261049e565b810181811067ffffffffffffffff8211171561067f5761067e610628565b5b80604052505050565b600061069261060a565b905061069e8282610657565b919050565b600067ffffffffffffffff8211156106be576106bd610628565b5b6106c78261049e565b9050602081019050919050565b82818337600083830152505050565b60006106f66106f1846106a3565b610688565b90508281526020810184848401111561071257610711610623565b5b61071d8482856106d4565b509392505050565b600082601f83011261073a5761073961061e565b5b813561074a8482602086016106e3565b91505092915050565b6000806040838503121561076a57610769610614565b5b600083013567ffffffffffffffff81111561078857610787610619565b5b61079485828601610725565b925050602083013567ffffffffffffffff8111156107b5576107b4610619565b5b6107c185828601610725565b9150509250929050565b7f4e487b7100000000000000000000000000000000000000000000000000000000600052602260045260246000fd5b6000600282049050600182168061081257607f821691505b602082108103610825576108246107cb565b5b50919050565b600082825260208201905092915050565b7f596f75206e65656420746f2073656e6420736f6d652065746865720000000000600082015250565b6000610872601b8361082b565b915061087d8261083c565b602082019050919050565b600060208201905081810360008301526108a181610865565b9050919050565b60008190508160005260206000209050919050565b60006020601f8301049050919050565b600082821b905092915050565b60006008830261090a7fffffffffffffffffffffffffffffffffffffffffffffffffffffffffffffffff826108cd565b61091486836108cd565b95508019841693508086168417925050509392505050565b6000819050919050565b600061095161094c6109478461043f565b61092c565b61043f565b9050919050565b6000819050919050565b61096b83610936565b61097f61097782610958565b8484546108da565b825550505050565b600090565b610994610987565b61099f818484610962565b505050565b5b818110156109c3576109b860008261098c565b6001810190506109a5565b5050565b601f821115610a08576109d9816108a8565b6109e2846108bd565b810160208510156109f1578190505b610a056109fd856108bd565b8301826109a4565b50505b505050565b600082821c905092915050565b6000610a2b60001984600802610a0d565b1980831691505092915050565b6000610a448383610a1a565b9150826002028217905092915050565b610a5d82610458565b67ffffffffffffffff811115610a7657610a75610628565b5b610a8082546107fa565b610a8b8282856109c7565b600060209050601f831160018114610abe5760008415610aac578287015190505b610ab68582610a38565b865550610b1e565b601f198416610acc866108a8565b60005b82811015610af457848901518255600182019150602085019450602081019050610acf565b86831015610b115784890151610b0d601f891682610a1a565b8355505b6001600288020188555050505b505050505050565b610b2f8161043f565b82525050565b6000610b4082610458565b610b4a818561082b565b9350610b5a818560208601610474565b610b638161049e565b840191505092915050565b6000606082019050610b836000830186610b26565b8181036020830152610b958185610b35565b90508181036040830152610ba98184610b35565b905094935050505056fea26469706673582212202d325bb1a809c0136af645d4578b3d0ba9e40e31418f4754a40e0e20e154f1eb64736f6c63430008130033",
  "linkReferences": {},
  "deployedLinkReferences": {}
}